{
  "contractName": "BridgeA",
  "abi": [
    {
      "inputs": [
        {
          "internalType": "address",
          "name": "_token",
          "type": "address"
        }
      ],
      "stateMutability": "nonpayable",
      "type": "constructor"
    },
    {
      "anonymous": false,
      "inputs": [
        {
          "indexed": true,
          "internalType": "address",
          "name": "previousOwner",
          "type": "address"
        },
        {
          "indexed": true,
          "internalType": "address",
          "name": "newOwner",
          "type": "address"
        }
      ],
      "name": "OwnershipTransferred",
      "type": "event"
    },
    {
      "anonymous": false,
      "inputs": [
        {
          "indexed": true,
          "internalType": "address",
          "name": "from",
          "type": "address"
        },
        {
          "indexed": false,
          "internalType": "uint256",
          "name": "amount",
          "type": "uint256"
        }
      ],
      "name": "TokensLocked",
      "type": "event"
    },
    {
      "inputs": [],
      "name": "counterpartBridge",
      "outputs": [
        {
          "internalType": "address",
          "name": "",
          "type": "address"
        }
      ],
      "stateMutability": "view",
      "type": "function"
    },
    {
      "inputs": [],
      "name": "owner",
      "outputs": [
        {
          "internalType": "address",
          "name": "",
          "type": "address"
        }
      ],
      "stateMutability": "view",
      "type": "function"
    },
    {
      "inputs": [],
      "name": "renounceOwnership",
      "outputs": [],
      "stateMutability": "nonpayable",
      "type": "function"
    },
    {
      "inputs": [],
      "name": "token",
      "outputs": [
        {
          "internalType": "contract IERC20",
          "name": "",
          "type": "address"
        }
      ],
      "stateMutability": "view",
      "type": "function"
    },
    {
      "inputs": [
        {
          "internalType": "address",
          "name": "newOwner",
          "type": "address"
        }
      ],
      "name": "transferOwnership",
      "outputs": [],
      "stateMutability": "nonpayable",
      "type": "function"
    },
    {
      "inputs": [
        {
          "internalType": "address",
          "name": "_counterpartBridge",
          "type": "address"
        }
      ],
      "name": "setCounterpartBridge",
      "outputs": [],
      "stateMutability": "nonpayable",
      "type": "function"
    },
    {
      "inputs": [
        {
          "internalType": "uint256",
          "name": "amount",
          "type": "uint256"
        }
      ],
      "name": "lockTokens",
      "outputs": [],
      "stateMutability": "nonpayable",
      "type": "function"
    },
    {
      "inputs": [
        {
          "internalType": "address",
          "name": "to",
          "type": "address"
        },
        {
          "internalType": "uint256",
          "name": "amount",
          "type": "uint256"
        }
      ],
      "name": "releaseTokens",
      "outputs": [],
      "stateMutability": "nonpayable",
      "type": "function"
    }
  ],
  "bytecode": "0x608060405234801561001057600080fd5b50604051610c40380380610c4083398181016040528101906100329190610176565b61004e61004361009560201b60201c565b61009d60201b60201c565b80600160006101000a81548173ffffffffffffffffffffffffffffffffffffffff021916908373ffffffffffffffffffffffffffffffffffffffff160217905550506101e8565b600033905090565b60008060009054906101000a900473ffffffffffffffffffffffffffffffffffffffff169050816000806101000a81548173ffffffffffffffffffffffffffffffffffffffff021916908373ffffffffffffffffffffffffffffffffffffffff1602179055508173ffffffffffffffffffffffffffffffffffffffff168173ffffffffffffffffffffffffffffffffffffffff167f8be0079c531659141344cd1fd0a4f28419497f9722a3daafe3b4186f6b6457e060405160405180910390a35050565b600081519050610170816101d1565b92915050565b60006020828403121561018857600080fd5b600061019684828501610161565b91505092915050565b60006101aa826101b1565b9050919050565b600073ffffffffffffffffffffffffffffffffffffffff82169050919050565b6101da8161019f565b81146101e557600080fd5b50565b610a49806101f76000396000f3fe608060405234801561001057600080fd5b50600436106100885760003560e01c8063af0bc79a1161005b578063af0bc79a146100ef578063f2fde38b1461010b578063f40d71f114610127578063fc0c546a1461014357610088565b80633a3485331461008d5780636e27d889146100ab578063715018a6146100c75780638da5cb5b146100d1575b600080fd5b610095610161565b6040516100a29190610840565b60405180910390f35b6100c560048036038101906100c09190610704565b610187565b005b6100cf6102c8565b005b6100d96102dc565b6040516100e69190610840565b60405180910390f35b61010960048036038101906101049190610676565b610305565b005b61012560048036038101906101209190610676565b610351565b005b610141600480360381019061013c919061069f565b6103d5565b005b61014b6104c7565b60405161015891906108bb565b60405180910390f35b600260009054906101000a900473ffffffffffffffffffffffffffffffffffffffff1681565b600160009054906101000a900473ffffffffffffffffffffffffffffffffffffffff1673ffffffffffffffffffffffffffffffffffffffff166323b872dd3330846040518463ffffffff1660e01b81526004016101e69392919061085b565b602060405180830381600087803b15801561020057600080fd5b505af1158015610214573d6000803e3d6000fd5b505050506040513d601f19601f8201168201806040525081019061023891906106db565b610277576040517f08c379a000000000000000000000000000000000000000000000000000000000815260040161026e906108f6565b60405180910390fd5b3373ffffffffffffffffffffffffffffffffffffffff167fac87f20a77d28ee8bbb58ec87ea8fa968b3393efae1a368fd50b767c2847391c826040516102bd9190610936565b60405180910390a250565b6102d06104ed565b6102da600061056b565b565b60008060009054906101000a900473ffffffffffffffffffffffffffffffffffffffff16905090565b61030d6104ed565b80600260006101000a81548173ffffffffffffffffffffffffffffffffffffffff021916908373ffffffffffffffffffffffffffffffffffffffff16021790555050565b6103596104ed565b600073ffffffffffffffffffffffffffffffffffffffff168173ffffffffffffffffffffffffffffffffffffffff1614156103c9576040517f08c379a00000000000000000000000000000000000000000000000000000000081526004016103c0906108d6565b60405180910390fd5b6103d28161056b565b50565b600160009054906101000a900473ffffffffffffffffffffffffffffffffffffffff1673ffffffffffffffffffffffffffffffffffffffff1663a9059cbb83836040518363ffffffff1660e01b8152600401610432929190610892565b602060405180830381600087803b15801561044c57600080fd5b505af1158015610460573d6000803e3d6000fd5b505050506040513d601f19601f8201168201806040525081019061048491906106db565b6104c3576040517f08c379a00000000000000000000000000000000000000000000000000000000081526004016104ba906108f6565b60405180910390fd5b5050565b600160009054906101000a900473ffffffffffffffffffffffffffffffffffffffff1681565b6104f561062f565b73ffffffffffffffffffffffffffffffffffffffff166105136102dc565b73ffffffffffffffffffffffffffffffffffffffff1614610569576040517f08c379a000000000000000000000000000000000000000000000000000000000815260040161056090610916565b60405180910390fd5b565b60008060009054906101000a900473ffffffffffffffffffffffffffffffffffffffff169050816000806101000a81548173ffffffffffffffffffffffffffffffffffffffff021916908373ffffffffffffffffffffffffffffffffffffffff1602179055508173ffffffffffffffffffffffffffffffffffffffff168173ffffffffffffffffffffffffffffffffffffffff167f8be0079c531659141344cd1fd0a4f28419497f9722a3daafe3b4186f6b6457e060405160405180910390a35050565b600033905090565b600081359050610646816109ce565b92915050565b60008151905061065b816109e5565b92915050565b600081359050610670816109fc565b92915050565b60006020828403121561068857600080fd5b600061069684828501610637565b91505092915050565b600080604083850312156106b257600080fd5b60006106c085828601610637565b92505060206106d185828601610661565b9150509250929050565b6000602082840312156106ed57600080fd5b60006106fb8482850161064c565b91505092915050565b60006020828403121561071657600080fd5b600061072484828501610661565b91505092915050565b61073681610962565b82525050565b610745816109aa565b82525050565b6000610758602683610951565b91507f4f776e61626c653a206e6577206f776e657220697320746865207a65726f206160008301527f64647265737300000000000000000000000000000000000000000000000000006020830152604082019050919050565b60006107be600f83610951565b91507f5472616e73666572206661696c656400000000000000000000000000000000006000830152602082019050919050565b60006107fe602083610951565b91507f4f776e61626c653a2063616c6c6572206973206e6f7420746865206f776e65726000830152602082019050919050565b61083a816109a0565b82525050565b6000602082019050610855600083018461072d565b92915050565b6000606082019050610870600083018661072d565b61087d602083018561072d565b61088a6040830184610831565b949350505050565b60006040820190506108a7600083018561072d565b6108b46020830184610831565b9392505050565b60006020820190506108d0600083018461073c565b92915050565b600060208201905081810360008301526108ef8161074b565b9050919050565b6000602082019050818103600083015261090f816107b1565b9050919050565b6000602082019050818103600083015261092f816107f1565b9050919050565b600060208201905061094b6000830184610831565b92915050565b600082825260208201905092915050565b600061096d82610980565b9050919050565b60008115159050919050565b600073ffffffffffffffffffffffffffffffffffffffff82169050919050565b6000819050919050565b60006109b5826109bc565b9050919050565b60006109c782610980565b9050919050565b6109d781610962565b81146109e257600080fd5b50565b6109ee81610974565b81146109f957600080fd5b50565b610a05816109a0565b8114610a1057600080fd5b5056fea26469706673582212205397e909ea9490bf3f07e67c6df3f99d15439ae89ad64dd90b9e4dbf253a967064736f6c63430008000033",
  "immutableReferences": {},
  "source": "// SPDX-License-Identifier: MIT\r\npragma solidity ^0.8.0;\r\n\r\nimport \"@openzeppelin/contracts/token/ERC20/IERC20.sol\";\r\nimport \"@openzeppelin/contracts/access/Ownable.sol\";\r\n\r\ncontract BridgeA is Ownable {\r\n    IERC20 public token;\r\n    address public counterpartBridge;\r\n\r\n    // Event to notify that tokens are locked and can be processed by the off-chain script\r\n    event TokensLocked(address indexed from, uint256 amount);\r\n\r\n    constructor(address _token) {\r\n        token = IERC20(_token);\r\n    }\r\n\r\n    function setCounterpartBridge(address _counterpartBridge) external onlyOwner {\r\n        counterpartBridge = _counterpartBridge;\r\n    }\r\n\r\n    function lockTokens(uint256 amount) external {\r\n        require(token.transferFrom(msg.sender, address(this), amount), \"Transfer failed\");\r\n        emit TokensLocked(msg.sender, amount); // Emitting event after locking tokens\r\n    }\r\n\r\n    function releaseTokens(address to, uint256 amount) external {\r\n        // require(msg.sender == counterpartBridge, \"Only counterpart bridge can release tokens\");\r\n        require(token.transfer(to, amount), \"Transfer failed\");\r\n    }\r\n}\r\n",
  "sourcePath": "C:\\Users\\anish\\Downloads\\GBC\\Semester_01\\BCDV_4028\\Assignment_01\\contracts\\BridgeA.sol",
  "compiler": {
    "name": "solc",
    "version": "0.8.0+commit.c7dfd78e.Emscripten.clang"
  },
  "schemaVersion": "3.4.16",
  "updatedAt": "2023-09-24T18:44:25.164Z",
  "networkType": "ethereum",
  "devdoc": {
    "kind": "dev",
    "methods": {
      "owner()": {
        "details": "Returns the address of the current owner."
      },
      "renounceOwnership()": {
        "details": "Leaves the contract without owner. It will not be possible to call `onlyOwner` functions. Can only be called by the current owner. NOTE: Renouncing ownership will leave the contract without an owner, thereby disabling any functionality that is only available to the owner."
      },
      "transferOwnership(address)": {
        "details": "Transfers ownership of the contract to a new account (`newOwner`). Can only be called by the current owner."
      }
    },
    "version": 1
  },
  "userdoc": {
    "kind": "user",
    "methods": {},
    "version": 1
  }
}