{
  "contractName": "BridgeB",
  "abi": [
    {
      "inputs": [
        {
          "internalType": "address",
          "name": "_token",
          "type": "address"
        }
      ],
      "stateMutability": "nonpayable",
      "type": "constructor"
    },
    {
      "anonymous": false,
      "inputs": [
        {
          "indexed": true,
          "internalType": "address",
          "name": "previousOwner",
          "type": "address"
        },
        {
          "indexed": true,
          "internalType": "address",
          "name": "newOwner",
          "type": "address"
        }
      ],
      "name": "OwnershipTransferred",
      "type": "event"
    },
    {
      "anonymous": false,
      "inputs": [
        {
          "indexed": true,
          "internalType": "address",
          "name": "to",
          "type": "address"
        },
        {
          "indexed": false,
          "internalType": "uint256",
          "name": "amount",
          "type": "uint256"
        }
      ],
      "name": "TokensReleased",
      "type": "event"
    },
    {
      "inputs": [],
      "name": "counterpartBridge",
      "outputs": [
        {
          "internalType": "address",
          "name": "",
          "type": "address"
        }
      ],
      "stateMutability": "view",
      "type": "function",
      "constant": true
    },
    {
      "inputs": [],
      "name": "owner",
      "outputs": [
        {
          "internalType": "address",
          "name": "",
          "type": "address"
        }
      ],
      "stateMutability": "view",
      "type": "function",
      "constant": true
    },
    {
      "inputs": [],
      "name": "renounceOwnership",
      "outputs": [],
      "stateMutability": "nonpayable",
      "type": "function"
    },
    {
      "inputs": [],
      "name": "token",
      "outputs": [
        {
          "internalType": "contract TokenB",
          "name": "",
          "type": "address"
        }
      ],
      "stateMutability": "view",
      "type": "function",
      "constant": true
    },
    {
      "inputs": [
        {
          "internalType": "address",
          "name": "newOwner",
          "type": "address"
        }
      ],
      "name": "transferOwnership",
      "outputs": [],
      "stateMutability": "nonpayable",
      "type": "function"
    },
    {
      "inputs": [
        {
          "internalType": "address",
          "name": "_counterpartBridge",
          "type": "address"
        }
      ],
      "name": "setCounterpartBridge",
      "outputs": [],
      "stateMutability": "nonpayable",
      "type": "function"
    },
    {
      "inputs": [
        {
          "internalType": "address",
          "name": "to",
          "type": "address"
        },
        {
          "internalType": "uint256",
          "name": "amount",
          "type": "uint256"
        }
      ],
      "name": "releaseTokens",
      "outputs": [],
      "stateMutability": "nonpayable",
      "type": "function"
    }
  ],
  "bytecode": "0x608060405234801561001057600080fd5b506040516109a63803806109a683398181016040528101906100329190610176565b61004e61004361009560201b60201c565b61009d60201b60201c565b80600160006101000a81548173ffffffffffffffffffffffffffffffffffffffff021916908373ffffffffffffffffffffffffffffffffffffffff160217905550506101e8565b600033905090565b60008060009054906101000a900473ffffffffffffffffffffffffffffffffffffffff169050816000806101000a81548173ffffffffffffffffffffffffffffffffffffffff021916908373ffffffffffffffffffffffffffffffffffffffff1602179055508173ffffffffffffffffffffffffffffffffffffffff168173ffffffffffffffffffffffffffffffffffffffff167f8be0079c531659141344cd1fd0a4f28419497f9722a3daafe3b4186f6b6457e060405160405180910390a35050565b600081519050610170816101d1565b92915050565b60006020828403121561018857600080fd5b600061019684828501610161565b91505092915050565b60006101aa826101b1565b9050919050565b600073ffffffffffffffffffffffffffffffffffffffff82169050919050565b6101da8161019f565b81146101e557600080fd5b50565b6107af806101f76000396000f3fe608060405234801561001057600080fd5b506004361061007d5760003560e01c8063af0bc79a1161005b578063af0bc79a146100c8578063f2fde38b146100e4578063f40d71f114610100578063fc0c546a1461011c5761007d565b80633a34853314610082578063715018a6146100a05780638da5cb5b146100aa575b600080fd5b61008a61013a565b6040516100979190610620565b60405180910390f35b6100a8610160565b005b6100b2610174565b6040516100bf9190610620565b60405180910390f35b6100e260048036038101906100dd91906104e8565b61019d565b005b6100fe60048036038101906100f991906104e8565b6101e9565b005b61011a60048036038101906101159190610511565b61026d565b005b61012461034e565b6040516101319190610664565b60405180910390f35b600260009054906101000a900473ffffffffffffffffffffffffffffffffffffffff1681565b610168610374565b61017260006103f2565b565b60008060009054906101000a900473ffffffffffffffffffffffffffffffffffffffff16905090565b6101a5610374565b80600260006101000a81548173ffffffffffffffffffffffffffffffffffffffff021916908373ffffffffffffffffffffffffffffffffffffffff16021790555050565b6101f1610374565b600073ffffffffffffffffffffffffffffffffffffffff168173ffffffffffffffffffffffffffffffffffffffff161415610261576040517f08c379a00000000000000000000000000000000000000000000000000000000081526004016102589061067f565b60405180910390fd5b61026a816103f2565b50565b600160009054906101000a900473ffffffffffffffffffffffffffffffffffffffff1673ffffffffffffffffffffffffffffffffffffffff166340c10f1983836040518363ffffffff1660e01b81526004016102ca92919061063b565b600060405180830381600087803b1580156102e457600080fd5b505af11580156102f8573d6000803e3d6000fd5b505050508173ffffffffffffffffffffffffffffffffffffffff167fc7798891864187665ac6dd119286e44ec13f014527aeeb2b8eb3fd413df931798260405161034291906106bf565b60405180910390a25050565b600160009054906101000a900473ffffffffffffffffffffffffffffffffffffffff1681565b61037c6104b6565b73ffffffffffffffffffffffffffffffffffffffff1661039a610174565b73ffffffffffffffffffffffffffffffffffffffff16146103f0576040517f08c379a00000000000000000000000000000000000000000000000000000000081526004016103e79061069f565b60405180910390fd5b565b60008060009054906101000a900473ffffffffffffffffffffffffffffffffffffffff169050816000806101000a81548173ffffffffffffffffffffffffffffffffffffffff021916908373ffffffffffffffffffffffffffffffffffffffff1602179055508173ffffffffffffffffffffffffffffffffffffffff168173ffffffffffffffffffffffffffffffffffffffff167f8be0079c531659141344cd1fd0a4f28419497f9722a3daafe3b4186f6b6457e060405160405180910390a35050565b600033905090565b6000813590506104cd8161074b565b92915050565b6000813590506104e281610762565b92915050565b6000602082840312156104fa57600080fd5b6000610508848285016104be565b91505092915050565b6000806040838503121561052457600080fd5b6000610532858286016104be565b9250506020610543858286016104d3565b9150509250929050565b610556816106eb565b82525050565b61056581610727565b82525050565b60006105786026836106da565b91507f4f776e61626c653a206e6577206f776e657220697320746865207a65726f206160008301527f64647265737300000000000000000000000000000000000000000000000000006020830152604082019050919050565b60006105de6020836106da565b91507f4f776e61626c653a2063616c6c6572206973206e6f7420746865206f776e65726000830152602082019050919050565b61061a8161071d565b82525050565b6000602082019050610635600083018461054d565b92915050565b6000604082019050610650600083018561054d565b61065d6020830184610611565b9392505050565b6000602082019050610679600083018461055c565b92915050565b600060208201905081810360008301526106988161056b565b9050919050565b600060208201905081810360008301526106b8816105d1565b9050919050565b60006020820190506106d46000830184610611565b92915050565b600082825260208201905092915050565b60006106f6826106fd565b9050919050565b600073ffffffffffffffffffffffffffffffffffffffff82169050919050565b6000819050919050565b600061073282610739565b9050919050565b6000610744826106fd565b9050919050565b610754816106eb565b811461075f57600080fd5b50565b61076b8161071d565b811461077657600080fd5b5056fea2646970667358221220928da6b9dc4deaa6e4c82afcfd99013410877d3aebaf9730b700245ab384876264736f6c63430008000033",
  "immutableReferences": {},
  "source": "// SPDX-License-Identifier: MIT\r\npragma solidity ^0.8.0;\r\n\r\nimport \"./TokenB.sol\";\r\nimport \"@openzeppelin/contracts/access/Ownable.sol\";\r\n\r\ncontract BridgeB is Ownable {\r\n    TokenB public token;\r\n    address public counterpartBridge;\r\n\r\n    event TokensReleased(address indexed to, uint256 amount);\r\n\r\n    constructor(address _token) {\r\n        token = TokenB(_token);\r\n    }\r\n\r\n    function setCounterpartBridge(address _counterpartBridge) external onlyOwner {\r\n        counterpartBridge = _counterpartBridge;\r\n    }\r\n\r\n    function releaseTokens(address to, uint256 amount) external {\r\n        // require(msg.sender == counterpartBridge, \"Only counterpart bridge can release tokens\");\r\n        token.mint(to, amount); // Call the mint function of TokenB\r\n        emit TokensReleased(to, amount);\r\n    }\r\n}\r\n",
  "sourcePath": "C:\\Users\\anish\\Downloads\\GBC\\Semester_01\\BCDV_4028\\Assignment_01\\contracts\\BridgeB.sol",
  "compiler": {
    "name": "solc",
    "version": "0.8.0+commit.c7dfd78e.Emscripten.clang"
  },
  "schemaVersion": "3.4.16",
  "updatedAt": "2023-09-24T18:44:25.173Z",
  "networkType": "ethereum",
  "devdoc": {
    "kind": "dev",
    "methods": {
      "owner()": {
        "details": "Returns the address of the current owner."
      },
      "renounceOwnership()": {
        "details": "Leaves the contract without owner. It will not be possible to call `onlyOwner` functions. Can only be called by the current owner. NOTE: Renouncing ownership will leave the contract without an owner, thereby disabling any functionality that is only available to the owner."
      },
      "transferOwnership(address)": {
        "details": "Transfers ownership of the contract to a new account (`newOwner`). Can only be called by the current owner."
      }
    },
    "version": 1
  },
  "userdoc": {
    "kind": "user",
    "methods": {},
    "version": 1
  }
}